{
  "contractName": "MetaSave",
  "abi": [
    {
      "inputs": [],
      "stateMutability": "nonpayable",
      "type": "constructor"
    },
    {
      "inputs": [],
      "name": "AccessControlBadConfirmation",
      "type": "error"
    },
    {
      "inputs": [
        {
          "internalType": "address",
          "name": "account",
          "type": "address"
        },
        {
          "internalType": "bytes32",
          "name": "neededRole",
          "type": "bytes32"
        }
      ],
      "name": "AccessControlUnauthorizedAccount",
      "type": "error"
    },
    {
      "anonymous": false,
      "inputs": [
        {
          "indexed": true,
          "internalType": "bytes32",
          "name": "role",
          "type": "bytes32"
        },
        {
          "indexed": true,
          "internalType": "bytes32",
          "name": "previousAdminRole",
          "type": "bytes32"
        },
        {
          "indexed": true,
          "internalType": "bytes32",
          "name": "newAdminRole",
          "type": "bytes32"
        }
      ],
      "name": "RoleAdminChanged",
      "type": "event"
    },
    {
      "anonymous": false,
      "inputs": [
        {
          "indexed": true,
          "internalType": "bytes32",
          "name": "role",
          "type": "bytes32"
        },
        {
          "indexed": true,
          "internalType": "address",
          "name": "account",
          "type": "address"
        },
        {
          "indexed": true,
          "internalType": "address",
          "name": "sender",
          "type": "address"
        }
      ],
      "name": "RoleGranted",
      "type": "event"
    },
    {
      "anonymous": false,
      "inputs": [
        {
          "indexed": true,
          "internalType": "bytes32",
          "name": "role",
          "type": "bytes32"
        },
        {
          "indexed": true,
          "internalType": "address",
          "name": "account",
          "type": "address"
        },
        {
          "indexed": true,
          "internalType": "address",
          "name": "sender",
          "type": "address"
        }
      ],
      "name": "RoleRevoked",
      "type": "event"
    },
    {
      "inputs": [],
      "name": "DEFAULT_ADMIN_ROLE",
      "outputs": [
        {
          "internalType": "bytes32",
          "name": "",
          "type": "bytes32"
        }
      ],
      "stateMutability": "view",
      "type": "function",
      "constant": true
    },
    {
      "inputs": [],
      "name": "HOSPITAL_ROLE",
      "outputs": [
        {
          "internalType": "bytes32",
          "name": "",
          "type": "bytes32"
        }
      ],
      "stateMutability": "view",
      "type": "function",
      "constant": true
    },
    {
      "inputs": [],
      "name": "USER_ROLE",
      "outputs": [
        {
          "internalType": "bytes32",
          "name": "",
          "type": "bytes32"
        }
      ],
      "stateMutability": "view",
      "type": "function",
      "constant": true
    },
    {
      "inputs": [
        {
          "internalType": "bytes32",
          "name": "role",
          "type": "bytes32"
        }
      ],
      "name": "getRoleAdmin",
      "outputs": [
        {
          "internalType": "bytes32",
          "name": "",
          "type": "bytes32"
        }
      ],
      "stateMutability": "view",
      "type": "function",
      "constant": true
    },
    {
      "inputs": [
        {
          "internalType": "bytes32",
          "name": "role",
          "type": "bytes32"
        },
        {
          "internalType": "address",
          "name": "account",
          "type": "address"
        }
      ],
      "name": "grantRole",
      "outputs": [],
      "stateMutability": "nonpayable",
      "type": "function"
    },
    {
      "inputs": [
        {
          "internalType": "bytes32",
          "name": "role",
          "type": "bytes32"
        },
        {
          "internalType": "address",
          "name": "account",
          "type": "address"
        }
      ],
      "name": "hasRole",
      "outputs": [
        {
          "internalType": "bool",
          "name": "",
          "type": "bool"
        }
      ],
      "stateMutability": "view",
      "type": "function",
      "constant": true
    },
    {
      "inputs": [
        {
          "internalType": "bytes32",
          "name": "role",
          "type": "bytes32"
        },
        {
          "internalType": "address",
          "name": "callerConfirmation",
          "type": "address"
        }
      ],
      "name": "renounceRole",
      "outputs": [],
      "stateMutability": "nonpayable",
      "type": "function"
    },
    {
      "inputs": [
        {
          "internalType": "bytes32",
          "name": "role",
          "type": "bytes32"
        },
        {
          "internalType": "address",
          "name": "account",
          "type": "address"
        }
      ],
      "name": "revokeRole",
      "outputs": [],
      "stateMutability": "nonpayable",
      "type": "function"
    },
    {
      "inputs": [
        {
          "internalType": "bytes4",
          "name": "interfaceId",
          "type": "bytes4"
        }
      ],
      "name": "supportsInterface",
      "outputs": [
        {
          "internalType": "bool",
          "name": "",
          "type": "bool"
        }
      ],
      "stateMutability": "view",
      "type": "function",
      "constant": true
    },
    {
      "inputs": [
        {
          "internalType": "address",
          "name": "account",
          "type": "address"
        }
      ],
      "name": "grantUserRole",
      "outputs": [
        {
          "internalType": "bool",
          "name": "",
          "type": "bool"
        }
      ],
      "stateMutability": "nonpayable",
      "type": "function"
    },
    {
      "inputs": [
        {
          "internalType": "address",
          "name": "account",
          "type": "address"
        }
      ],
      "name": "grantHospitalRole",
      "outputs": [
        {
          "internalType": "bool",
          "name": "",
          "type": "bool"
        }
      ],
      "stateMutability": "nonpayable",
      "type": "function"
    },
    {
      "inputs": [
        {
          "internalType": "address",
          "name": "user_addr",
          "type": "address"
        },
        {
          "internalType": "string",
          "name": "name",
          "type": "string"
        },
        {
          "internalType": "string",
          "name": "id",
          "type": "string"
        },
        {
          "internalType": "string",
          "name": "ip",
          "type": "string"
        },
        {
          "internalType": "string",
          "name": "date",
          "type": "string"
        }
      ],
      "name": "addDevice",
      "outputs": [],
      "stateMutability": "nonpayable",
      "type": "function"
    },
    {
      "inputs": [
        {
          "internalType": "address",
          "name": "user_addr",
          "type": "address"
        }
      ],
      "name": "getDevices",
      "outputs": [
        {
          "components": [
            {
              "internalType": "string",
              "name": "name",
              "type": "string"
            },
            {
              "internalType": "string",
              "name": "id",
              "type": "string"
            },
            {
              "internalType": "string",
              "name": "ip",
              "type": "string"
            },
            {
              "internalType": "string",
              "name": "date",
              "type": "string"
            }
          ],
          "internalType": "struct MetaSave.Device[]",
          "name": "",
          "type": "tuple[]"
        }
      ],
      "stateMutability": "view",
      "type": "function",
      "constant": true
    },
    {
      "inputs": [
        {
          "internalType": "address",
          "name": "owner",
          "type": "address"
        },
        {
          "internalType": "string",
          "name": "deviceId",
          "type": "string"
        }
      ],
      "name": "removeDevice",
      "outputs": [
        {
          "internalType": "bool",
          "name": "",
          "type": "bool"
        }
      ],
      "stateMutability": "nonpayable",
      "type": "function"
    },
    {
      "inputs": [
        {
          "internalType": "address",
          "name": "user_addr",
          "type": "address"
        },
        {
          "internalType": "address",
          "name": "hospital_addr",
          "type": "address"
        }
      ],
      "name": "userSelectHospital",
      "outputs": [],
      "stateMutability": "nonpayable",
      "type": "function"
    },
    {
      "inputs": [
        {
          "internalType": "address",
          "name": "user_addr",
          "type": "address"
        }
      ],
      "name": "getUserHospitals",
      "outputs": [
        {
          "internalType": "address[]",
          "name": "",
          "type": "address[]"
        }
      ],
      "stateMutability": "view",
      "type": "function",
      "constant": true
    },
    {
      "inputs": [
        {
          "internalType": "address",
          "name": "hospital_addr",
          "type": "address"
        }
      ],
      "name": "getHospitalUsers",
      "outputs": [
        {
          "internalType": "address[]",
          "name": "",
          "type": "address[]"
        }
      ],
      "stateMutability": "view",
      "type": "function",
      "constant": true
    },
    {
      "inputs": [
        {
          "internalType": "address",
          "name": "user_addr",
          "type": "address"
        },
        {
          "internalType": "string",
          "name": "ipfsFileName",
          "type": "string"
        }
      ],
      "name": "setIPFSFileName",
      "outputs": [],
      "stateMutability": "nonpayable",
      "type": "function"
    },
    {
      "inputs": [
        {
          "internalType": "address",
          "name": "user_addr",
          "type": "address"
        }
      ],
      "name": "getIPFSFileName",
      "outputs": [
        {
          "internalType": "string",
          "name": "",
          "type": "string"
        }
      ],
      "stateMutability": "view",
      "type": "function",
      "constant": true
    },
    {
      "inputs": [
        {
          "internalType": "address",
          "name": "user_addr",
          "type": "address"
        },
        {
          "internalType": "string",
          "name": "imgIPFSid",
          "type": "string"
        },
        {
          "internalType": "string",
          "name": "dataIPFSid",
          "type": "string"
        }
      ],
      "name": "setFallData",
      "outputs": [],
      "stateMutability": "nonpayable",
      "type": "function"
    },
    {
      "inputs": [
        {
          "internalType": "address",
          "name": "user_addr",
          "type": "address"
        }
      ],
      "name": "getFallData",
      "outputs": [
        {
          "components": [
            {
              "internalType": "string",
              "name": "imgIPFSid",
              "type": "string"
            },
            {
              "internalType": "string",
              "name": "dataIPFSid",
              "type": "string"
            }
          ],
          "internalType": "struct MetaSave.FallData[]",
          "name": "",
          "type": "tuple[]"
        }
      ],
      "stateMutability": "view",
      "type": "function",
      "constant": true
    }
  ],
  "bytecode": "0x608060405273ce927753f89b4482cbd56affee3bf2931418e47160015f6101000a81548173ffffffffffffffffffffffffffffffffffffffff021916908373ffffffffffffffffffffffffffffffffffffffff16021790555034801562000064575f80fd5b506200009a5f801b60015f9054906101000a900473ffffffffffffffffffffffffffffffffffffffff16620000a160201b60201c565b5062000206565b5f620000b483836200019c60201b60201c565b620001925760015f808581526020019081526020015f205f015f8473ffffffffffffffffffffffffffffffffffffffff1673ffffffffffffffffffffffffffffffffffffffff1681526020019081526020015f205f6101000a81548160ff0219169083151502179055506200012e620001ff60201b60201c565b73ffffffffffffffffffffffffffffffffffffffff168273ffffffffffffffffffffffffffffffffffffffff16847f2f8788117e7eff1d82e926ec794901d17c78024a50270940304540a733656f0d60405160405180910390a46001905062000196565b5f90505b92915050565b5f805f8481526020019081526020015f205f015f8373ffffffffffffffffffffffffffffffffffffffff1673ffffffffffffffffffffffffffffffffffffffff1681526020019081526020015f205f9054906101000a900460ff16905092915050565b5f33905090565b6126f980620002145f395ff3fe608060405234801561000f575f80fd5b5060043610610135575f3560e01c806368660e3c116100b657806391d148541161007a57806391d14854146103a7578063a217fddf146103d7578063aca35838146103f5578063b2c9d4b814610411578063d547741f1461042d578063f6ba66781461044957610135565b806368660e3c146102cb578063689dbee5146102fb57806372508ca1146103175780637ee756f21461034757806389537a571461037757610135565b806336568abe116100fd57806336568abe14610203578063417b26e01461021f57806344060fb51461024f5780634c5fa8b81461027f5780634f718ea11461029b57610135565b806301ffc9a7146101395780631311916114610169578063248a9ca3146101875780632ae929a9146101b75780632f2ff15d146101e7575b5f80fd5b610153600480360381019061014e9190611709565b610467565b604051610160919061174e565b60405180910390f35b6101716104e0565b60405161017e919061177f565b60405180910390f35b6101a1600480360381019061019c91906117c2565b610504565b6040516101ae919061177f565b60405180910390f35b6101d160048036038101906101cc9190611847565b610520565b6040516101de9190611929565b60405180910390f35b61020160048036038101906101fc9190611949565b6105e8565b005b61021d60048036038101906102189190611949565b61060a565b005b61023960048036038101906102349190611847565b610685565b6040516102469190611b41565b60405180910390f35b61026960048036038101906102649190611c8d565b61095d565b604051610276919061174e565b60405180910390f35b61029960048036038101906102949190611ce7565b610b20565b005b6102b560048036038101906102b09190611847565b610bce565b6040516102c29190611db7565b60405180910390f35b6102e560048036038101906102e09190611847565b610ce3565b6040516102f2919061174e565b60405180910390f35b61031560048036038101906103109190611dd7565b610d24565b005b610331600480360381019061032c9190611847565b610e5e565b60405161033e9190611f11565b60405180910390f35b610361600480360381019061035c9190611847565b611061565b60405161036e919061174e565b60405180910390f35b610391600480360381019061038c9190611847565b6110a2565b60405161039e9190611929565b60405180910390f35b6103c160048036038101906103bc9190611949565b61116a565b6040516103ce919061174e565b60405180910390f35b6103df6111cd565b6040516103ec919061177f565b60405180910390f35b61040f600480360381019061040a9190611c8d565b6111d3565b005b61042b60048036038101906104269190611f31565b611222565b005b61044760048036038101906104429190611949565b61130a565b005b61045161132c565b60405161045e919061177f565b60405180910390f35b5f7f7965db0b000000000000000000000000000000000000000000000000000000007bffffffffffffffffffffffffffffffffffffffffffffffffffffffff1916827bffffffffffffffffffffffffffffffffffffffffffffffffffffffff191614806104d957506104d882611350565b5b9050919050565b7f14823911f2da1b49f045a0929a60b8c1f2a7fc8c06c7284ca3e8ab4e193a08c881565b5f805f8381526020019081526020015f20600101549050919050565b606060055f8373ffffffffffffffffffffffffffffffffffffffff1673ffffffffffffffffffffffffffffffffffffffff1681526020019081526020015f208054806020026020016040519081016040528092919081815260200182805480156105dc57602002820191905f5260205f20905b815f9054906101000a900473ffffffffffffffffffffffffffffffffffffffff1673ffffffffffffffffffffffffffffffffffffffff1681526020019060010190808311610593575b50505050509050919050565b6105f182610504565b6105fa816113b9565b61060483836113cd565b50505050565b6106126114b6565b73ffffffffffffffffffffffffffffffffffffffff168173ffffffffffffffffffffffffffffffffffffffff1614610676576040517f6697b23200000000000000000000000000000000000000000000000000000000815260040160405180910390fd5b61068082826114bd565b505050565b606060065f8373ffffffffffffffffffffffffffffffffffffffff1673ffffffffffffffffffffffffffffffffffffffff1681526020019081526020015f20805480602002602001604051908101604052809291908181526020015f905b82821015610952578382905f5260205f2090600402016040518060800160405290815f8201805461071390612045565b80601f016020809104026020016040519081016040528092919081815260200182805461073f90612045565b801561078a5780601f106107615761010080835404028352916020019161078a565b820191905f5260205f20905b81548152906001019060200180831161076d57829003601f168201915b505050505081526020016001820180546107a390612045565b80601f01602080910402602001604051908101604052809291908181526020018280546107cf90612045565b801561081a5780601f106107f15761010080835404028352916020019161081a565b820191905f5260205f20905b8154815290600101906020018083116107fd57829003601f168201915b5050505050815260200160028201805461083390612045565b80601f016020809104026020016040519081016040528092919081815260200182805461085f90612045565b80156108aa5780601f10610881576101008083540402835291602001916108aa565b820191905f5260205f20905b81548152906001019060200180831161088d57829003601f168201915b505050505081526020016003820180546108c390612045565b80601f01602080910402602001604051908101604052809291908181526020018280546108ef90612045565b801561093a5780601f106109115761010080835404028352916020019161093a565b820191905f5260205f20905b81548152906001019060200180831161091d57829003601f168201915b505050505081525050815260200190600101906106e3565b505050509050919050565b5f8060065f8573ffffffffffffffffffffffffffffffffffffffff1673ffffffffffffffffffffffffffffffffffffffff1681526020019081526020015f2090505f5b8180549050811015610b145783805190602001208282815481106109c7576109c6612075565b5b905f5260205f2090600402016001016040516109e3919061213e565b604051809103902003610b01578160018380549050610a02919061218a565b81548110610a1357610a12612075565b5b905f5260205f209060040201828281548110610a3257610a31612075565b5b905f5260205f2090600402015f8201815f019081610a50919061236f565b5060018201816001019081610a65919061236f565b5060028201816002019081610a7a919061236f565b5060038201816003019081610a8f919061236f565b5090505081805480610aa457610aa3612454565b5b600190038181905f5260205f2090600402015f8082015f610ac5919061164b565b600182015f610ad4919061164b565b600282015f610ae3919061164b565b600382015f610af2919061164b565b50509055600192505050610b1a565b8080610b0c90612481565b9150506109a0565b505f9150505b92915050565b5f604051806040016040528084815260200183815250905060035f8573ffffffffffffffffffffffffffffffffffffffff1673ffffffffffffffffffffffffffffffffffffffff1681526020019081526020015f2081908060018154018082558091505060019003905f5260205f2090600202015f909190919091505f820151815f019081610baf91906124c8565b506020820151816001019081610bc591906124c8565b50505050505050565b6060610bd9826115a6565b610c18576040517f08c379a0000000000000000000000000000000000000000000000000000000008152600401610c0f906125e1565b60405180910390fd5b60025f8373ffffffffffffffffffffffffffffffffffffffff1673ffffffffffffffffffffffffffffffffffffffff1681526020019081526020015f208054610c6090612045565b80601f0160208091040260200160405190810160405280929190818152602001828054610c8c90612045565b8015610cd75780601f10610cae57610100808354040283529160200191610cd7565b820191905f5260205f20905b815481529060010190602001808311610cba57829003601f168201915b50505050509050919050565b5f805f1b610cf0816113b9565b610d1a7f14823911f2da1b49f045a0929a60b8c1f2a7fc8c06c7284ca3e8ab4e193a08c8846105e8565b6001915050919050565b60045f8373ffffffffffffffffffffffffffffffffffffffff1673ffffffffffffffffffffffffffffffffffffffff1681526020019081526020015f2081908060018154018082558091505060019003905f5260205f20015f9091909190916101000a81548173ffffffffffffffffffffffffffffffffffffffff021916908373ffffffffffffffffffffffffffffffffffffffff16021790555060055f8273ffffffffffffffffffffffffffffffffffffffff1673ffffffffffffffffffffffffffffffffffffffff1681526020019081526020015f2082908060018154018082558091505060019003905f5260205f20015f9091909190916101000a81548173ffffffffffffffffffffffffffffffffffffffff021916908373ffffffffffffffffffffffffffffffffffffffff1602179055505050565b60605f60035f8473ffffffffffffffffffffffffffffffffffffffff1673ffffffffffffffffffffffffffffffffffffffff1681526020019081526020015f2090505f818054905011610ee6576040517f08c379a0000000000000000000000000000000000000000000000000000000008152600401610edd9061266f565b60405180910390fd5b80805480602002602001604051908101604052809291908181526020015f905b82821015611055578382905f5260205f2090600202016040518060400160405290815f82018054610f3690612045565b80601f0160208091040260200160405190810160405280929190818152602001828054610f6290612045565b8015610fad5780601f10610f8457610100808354040283529160200191610fad565b820191905f5260205f20905b815481529060010190602001808311610f9057829003601f168201915b50505050508152602001600182018054610fc690612045565b80601f0160208091040260200160405190810160405280929190818152602001828054610ff290612045565b801561103d5780601f106110145761010080835404028352916020019161103d565b820191905f5260205f20905b81548152906001019060200180831161102057829003601f168201915b50505050508152505081526020019060010190610f06565b50505050915050919050565b5f805f1b61106e816113b9565b6110987fc8f5b4140cca307cd927e59cbeea8291bffeee228fc677f0fa059aef7b4dd8d5846105e8565b6001915050919050565b606060045f8373ffffffffffffffffffffffffffffffffffffffff1673ffffffffffffffffffffffffffffffffffffffff1681526020019081526020015f2080548060200260200160405190810160405280929190818152602001828054801561115e57602002820191905f5260205f20905b815f9054906101000a900473ffffffffffffffffffffffffffffffffffffffff1673ffffffffffffffffffffffffffffffffffffffff1681526020019060010190808311611115575b50505050509050919050565b5f805f8481526020019081526020015f205f015f8373ffffffffffffffffffffffffffffffffffffffff1673ffffffffffffffffffffffffffffffffffffffff1681526020019081526020015f205f9054906101000a900460ff16905092915050565b5f801b81565b8060025f8473ffffffffffffffffffffffffffffffffffffffff1673ffffffffffffffffffffffffffffffffffffffff1681526020019081526020015f20908161121d91906124c8565b505050565b5f604051806080016040528086815260200185815260200184815260200183815250905060065f8773ffffffffffffffffffffffffffffffffffffffff1673ffffffffffffffffffffffffffffffffffffffff1681526020019081526020015f2081908060018154018082558091505060019003905f5260205f2090600402015f909190919091505f820151815f0190816112bd91906124c8565b5060208201518160010190816112d391906124c8565b5060408201518160020190816112e991906124c8565b5060608201518160030190816112ff91906124c8565b505050505050505050565b61131382610504565b61131c816113b9565b61132683836114bd565b50505050565b7fc8f5b4140cca307cd927e59cbeea8291bffeee228fc677f0fa059aef7b4dd8d581565b5f7f01ffc9a7000000000000000000000000000000000000000000000000000000007bffffffffffffffffffffffffffffffffffffffffffffffffffffffff1916827bffffffffffffffffffffffffffffffffffffffffffffffffffffffff1916149050919050565b6113ca816113c56114b6565b6115fa565b50565b5f6113d8838361116a565b6114ac5760015f808581526020019081526020015f205f015f8473ffffffffffffffffffffffffffffffffffffffff1673ffffffffffffffffffffffffffffffffffffffff1681526020019081526020015f205f6101000a81548160ff0219169083151502179055506114496114b6565b73ffffffffffffffffffffffffffffffffffffffff168273ffffffffffffffffffffffffffffffffffffffff16847f2f8788117e7eff1d82e926ec794901d17c78024a50270940304540a733656f0d60405160405180910390a4600190506114b0565b5f90505b92915050565b5f33905090565b5f6114c8838361116a565b1561159c575f805f8581526020019081526020015f205f015f8473ffffffffffffffffffffffffffffffffffffffff1673ffffffffffffffffffffffffffffffffffffffff1681526020019081526020015f205f6101000a81548160ff0219169083151502179055506115396114b6565b73ffffffffffffffffffffffffffffffffffffffff168273ffffffffffffffffffffffffffffffffffffffff16847ff6391f5c32d9c69d2a47ea670b442974b53935d1edc7fd64eb21e047a839171b60405160405180910390a4600190506115a0565b5f90505b92915050565b5f8060025f8473ffffffffffffffffffffffffffffffffffffffff1673ffffffffffffffffffffffffffffffffffffffff1681526020019081526020015f2080546115f090612045565b9050119050919050565b611604828261116a565b6116475780826040517fe2517d3f00000000000000000000000000000000000000000000000000000000815260040161163e92919061269c565b60405180910390fd5b5050565b50805461165790612045565b5f825580601f106116685750611685565b601f0160209004905f5260205f20908101906116849190611688565b5b50565b5b8082111561169f575f815f905550600101611689565b5090565b5f604051905090565b5f80fd5b5f80fd5b5f7fffffffff0000000000000000000000000000000000000000000000000000000082169050919050565b6116e8816116b4565b81146116f2575f80fd5b50565b5f81359050611703816116df565b92915050565b5f6020828403121561171e5761171d6116ac565b5b5f61172b848285016116f5565b91505092915050565b5f8115159050919050565b61174881611734565b82525050565b5f6020820190506117615f83018461173f565b92915050565b5f819050919050565b61177981611767565b82525050565b5f6020820190506117925f830184611770565b92915050565b6117a181611767565b81146117ab575f80fd5b50565b5f813590506117bc81611798565b92915050565b5f602082840312156117d7576117d66116ac565b5b5f6117e4848285016117ae565b91505092915050565b5f73ffffffffffffffffffffffffffffffffffffffff82169050919050565b5f611816826117ed565b9050919050565b6118268161180c565b8114611830575f80fd5b50565b5f813590506118418161181d565b92915050565b5f6020828403121561185c5761185b6116ac565b5b5f61186984828501611833565b91505092915050565b5f81519050919050565b5f82825260208201905092915050565b5f819050602082019050919050565b6118a48161180c565b82525050565b5f6118b5838361189b565b60208301905092915050565b5f602082019050919050565b5f6118d782611872565b6118e1818561187c565b93506118ec8361188c565b805f5b8381101561191c57815161190388826118aa565b975061190e836118c1565b9250506001810190506118ef565b5085935050505092915050565b5f6020820190508181035f83015261194181846118cd565b905092915050565b5f806040838503121561195f5761195e6116ac565b5b5f61196c858286016117ae565b925050602061197d85828601611833565b9150509250929050565b5f81519050919050565b5f82825260208201905092915050565b5f819050602082019050919050565b5f81519050919050565b5f82825260208201905092915050565b5f5b838110156119e75780820151818401526020810190506119cc565b5f8484015250505050565b5f601f19601f8301169050919050565b5f611a0c826119b0565b611a1681856119ba565b9350611a268185602086016119ca565b611a2f816119f2565b840191505092915050565b5f608083015f8301518482035f860152611a548282611a02565b91505060208301518482036020860152611a6e8282611a02565b91505060408301518482036040860152611a888282611a02565b91505060608301518482036060860152611aa28282611a02565b9150508091505092915050565b5f611aba8383611a3a565b905092915050565b5f602082019050919050565b5f611ad882611987565b611ae28185611991565b935083602082028501611af4856119a1565b805f5b85811015611b2f5784840389528151611b108582611aaf565b9450611b1b83611ac2565b925060208a01995050600181019050611af7565b50829750879550505050505092915050565b5f6020820190508181035f830152611b598184611ace565b905092915050565b5f80fd5b5f80fd5b7f4e487b71000000000000000000000000000000000000000000000000000000005f52604160045260245ffd5b611b9f826119f2565b810181811067ffffffffffffffff82111715611bbe57611bbd611b69565b5b80604052505050565b5f611bd06116a3565b9050611bdc8282611b96565b919050565b5f67ffffffffffffffff821115611bfb57611bfa611b69565b5b611c04826119f2565b9050602081019050919050565b828183375f83830152505050565b5f611c31611c2c84611be1565b611bc7565b905082815260208101848484011115611c4d57611c4c611b65565b5b611c58848285611c11565b509392505050565b5f82601f830112611c7457611c73611b61565b5b8135611c84848260208601611c1f565b91505092915050565b5f8060408385031215611ca357611ca26116ac565b5b5f611cb085828601611833565b925050602083013567ffffffffffffffff811115611cd157611cd06116b0565b5b611cdd85828601611c60565b9150509250929050565b5f805f60608486031215611cfe57611cfd6116ac565b5b5f611d0b86828701611833565b935050602084013567ffffffffffffffff811115611d2c57611d2b6116b0565b5b611d3886828701611c60565b925050604084013567ffffffffffffffff811115611d5957611d586116b0565b5b611d6586828701611c60565b9150509250925092565b5f82825260208201905092915050565b5f611d89826119b0565b611d938185611d6f565b9350611da38185602086016119ca565b611dac816119f2565b840191505092915050565b5f6020820190508181035f830152611dcf8184611d7f565b905092915050565b5f8060408385031215611ded57611dec6116ac565b5b5f611dfa85828601611833565b9250506020611e0b85828601611833565b9150509250929050565b5f81519050919050565b5f82825260208201905092915050565b5f819050602082019050919050565b5f604083015f8301518482035f860152611e588282611a02565b91505060208301518482036020860152611e728282611a02565b9150508091505092915050565b5f611e8a8383611e3e565b905092915050565b5f602082019050919050565b5f611ea882611e15565b611eb28185611e1f565b935083602082028501611ec485611e2f565b805f5b85811015611eff5784840389528151611ee08582611e7f565b9450611eeb83611e92565b925060208a01995050600181019050611ec7565b50829750879550505050505092915050565b5f6020820190508181035f830152611f298184611e9e565b905092915050565b5f805f805f60a08688031215611f4a57611f496116ac565b5b5f611f5788828901611833565b955050602086013567ffffffffffffffff811115611f7857611f776116b0565b5b611f8488828901611c60565b945050604086013567ffffffffffffffff811115611fa557611fa46116b0565b5b611fb188828901611c60565b935050606086013567ffffffffffffffff811115611fd257611fd16116b0565b5b611fde88828901611c60565b925050608086013567ffffffffffffffff811115611fff57611ffe6116b0565b5b61200b88828901611c60565b9150509295509295909350565b7f4e487b71000000000000000000000000000000000000000000000000000000005f52602260045260245ffd5b5f600282049050600182168061205c57607f821691505b60208210810361206f5761206e612018565b5b50919050565b7f4e487b71000000000000000000000000000000000000000000000000000000005f52603260045260245ffd5b5f81905092915050565b5f819050815f5260205f209050919050565b5f81546120ca81612045565b6120d481866120a2565b9450600182165f81146120ee576001811461210357612135565b60ff1983168652811515820286019350612135565b61210c856120ac565b5f5b8381101561212d5781548189015260018201915060208101905061210e565b838801955050505b50505092915050565b5f61214982846120be565b915081905092915050565b5f819050919050565b7f4e487b71000000000000000000000000000000000000000000000000000000005f52601160045260245ffd5b5f61219482612154565b915061219f83612154565b92508282039050818111156121b7576121b661215d565b5b92915050565b5f815490506121cb81612045565b9050919050565b5f819050815f5260205f209050919050565b5f6020601f8301049050919050565b5f82821b905092915050565b5f6008830261222e7fffffffffffffffffffffffffffffffffffffffffffffffffffffffffffffffff826121f3565b61223886836121f3565b95508019841693508086168417925050509392505050565b5f819050919050565b5f61227361226e61226984612154565b612250565b612154565b9050919050565b5f819050919050565b61228c83612259565b6122a06122988261227a565b8484546121ff565b825550505050565b5f90565b6122b46122a8565b6122bf818484612283565b505050565b5b818110156122e2576122d75f826122ac565b6001810190506122c5565b5050565b601f821115612327576122f8816121d2565b612301846121e4565b81016020851015612310578190505b61232461231c856121e4565b8301826122c4565b50505b505050565b5f82821c905092915050565b5f6123475f198460080261232c565b1980831691505092915050565b5f61235f8383612338565b9150826002028217905092915050565b81810361237d575050612452565b612386826121bd565b67ffffffffffffffff81111561239f5761239e611b69565b5b6123a98254612045565b6123b48282856122e6565b5f601f8311600181146123e1575f84156123cf578287015490505b6123d98582612354565b86555061244b565b601f1984166123ef876121d2565b96506123fa866121d2565b5f5b82811015612421578489015482556001820191506001850194506020810190506123fc565b8683101561243e578489015461243a601f891682612338565b8355505b6001600288020188555050505b5050505050505b565b7f4e487b71000000000000000000000000000000000000000000000000000000005f52603160045260245ffd5b5f61248b82612154565b91507fffffffffffffffffffffffffffffffffffffffffffffffffffffffffffffffff82036124bd576124bc61215d565b5b600182019050919050565b6124d1826119b0565b67ffffffffffffffff8111156124ea576124e9611b69565b5b6124f48254612045565b6124ff8282856122e6565b5f60209050601f831160018114612530575f841561251e578287015190505b6125288582612354565b86555061258f565b601f19841661253e866121d2565b5f5b8281101561256557848901518255600182019150602085019450602081019050612540565b86831015612582578489015161257e601f891682612338565b8355505b6001600288020188555050505b505050505050565b7f55736572206e6f7420666f756e640000000000000000000000000000000000005f82015250565b5f6125cb600e83611d6f565b91506125d682612597565b602082019050919050565b5f6020820190508181035f8301526125f8816125bf565b9050919050565b7f4e6f2066616c6c206461746120666f756e6420666f722074686520676976656e5f8201527f2075736572206164647265737300000000000000000000000000000000000000602082015250565b5f612659602d83611d6f565b9150612664826125ff565b604082019050919050565b5f6020820190508181035f8301526126868161264d565b9050919050565b6126968161180c565b82525050565b5f6040820190506126af5f83018561268d565b6126bc6020830184611770565b939250505056fea26469706673582212202bc8bfc0f5941a2e37ad4555c2a4a9dc3cd925fe6ecb1765caa52c9f1fe15a9d64736f6c63430008140033",
  "immutableReferences": {},
  "source": "// SPDX-License-Identifier: MIT\r\npragma solidity ^0.8.13;\r\n\r\nimport \"@openzeppelin/contracts/access/AccessControl.sol\";\r\n\r\ncontract MetaSave is AccessControl {\r\n    address private admin = 0xcE927753f89b4482CbD56afFEe3bf2931418e471;\r\n    constructor() {\r\n        _grantRole(DEFAULT_ADMIN_ROLE, admin);\r\n    }\r\n\r\n    struct FallData {\r\n        string imgIPFSid;\r\n        string dataIPFSid;\r\n    }\r\n\r\n    struct Device {\r\n        string name;\r\n        string id;\r\n        string ip;\r\n        string date;\r\n    }\r\n\r\n\tmapping(address => string) private userIPFSMapping;\r\n\tmapping(address => FallData[]) private fallDataMap;\r\n\r\n    mapping(address => address[]) private userHospitalMapping;\r\n    mapping(address => address[]) private hospitalUserMapping;\r\n\r\n    mapping(address => Device[]) private userDeviceMapping;\r\n\r\n    bytes32 public constant USER_ROLE = keccak256(\"USER_ROLE\");\r\n    bytes32 public constant HOSPITAL_ROLE = keccak256(\"HOSPITAL_ROLE\");\r\n\r\n    modifier onlyAdmin() {\r\n        require(hasRole(DEFAULT_ADMIN_ROLE, msg.sender), \"Caller is not an admin\");\r\n        _;\r\n    }\r\n \r\n    function grantUserRole(address account) public onlyRole(DEFAULT_ADMIN_ROLE) returns (bool) { \r\n        grantRole(USER_ROLE, account);\r\n        return true;\r\n    }\r\n\r\n    function grantHospitalRole(address account) public onlyRole(DEFAULT_ADMIN_ROLE) returns (bool) { \r\n        grantRole(HOSPITAL_ROLE, account);\r\n        return true;\r\n    }\r\n\r\n    function addDevice(address user_addr, string memory name, string memory id, string memory ip, string memory date) public {\r\n        // require(hasRole(USER_ROLE, user_addr), \"Caller is not a user\");\r\n\r\n        Device memory newDevice = Device({\r\n            name: name,\r\n            id: id,\r\n            ip: ip,\r\n            date: date\r\n        });\r\n\r\n        userDeviceMapping[user_addr].push(newDevice);\r\n    }\r\n\r\n    function getDevices(address user_addr) public view returns (Device[] memory) {\r\n        // require(hasRole(USER_ROLE, user_addr), \"Caller is not a user\");\r\n\r\n        return userDeviceMapping[user_addr];\r\n    }\r\n\r\n    function removeDevice(address owner, string memory deviceId) external returns (bool) {\r\n        // require(hasRole(USER_ROLE, owner), \"Caller is not a user\");\r\n\r\n        Device[] storage devices = userDeviceMapping[owner];\r\n        for (uint256 i = 0; i < devices.length; i++) {\r\n            if (keccak256(bytes(devices[i].id)) == keccak256(bytes(deviceId))) {\r\n                devices[i] = devices[devices.length - 1];\r\n                devices.pop();\r\n                return true;\r\n            }\r\n        }\r\n        return false;\r\n    }\r\n\r\n    function userSelectHospital(address user_addr, address hospital_addr) public {\r\n        // require(hasRole(USER_ROLE, user_addr), \"Caller is not a user\");\r\n\r\n        userHospitalMapping[user_addr].push(hospital_addr);\r\n        hospitalUserMapping[hospital_addr].push(user_addr);\r\n    }\r\n\r\n    function getUserHospitals(address user_addr) public view returns (address[] memory) {\r\n        // require(hasRole(USER_ROLE, user_addr));\r\n\r\n        return userHospitalMapping[user_addr];\r\n    }\r\n\r\n    function getHospitalUsers(address hospital_addr) public view returns (address[] memory) {\r\n        // require(hasRole(HOSPITAL_ROLE, hospital_addr));\r\n\r\n        return hospitalUserMapping[hospital_addr];\r\n    }\r\n\r\n    function setIPFSFileName(address user_addr, string memory ipfsFileName) public {\r\n        // require(hasRole(USER_ROLE, user_addr));\r\n\r\n        userIPFSMapping[user_addr] = ipfsFileName;\r\n    }\r\n\r\n    function getIPFSFileName(address user_addr) public view returns (string memory) {\r\n        // require(hasRole(USER_ROLE, user_addr));\r\n\r\n        require(userExists(user_addr), \"User not found\");\r\n\r\n        return userIPFSMapping[user_addr];\r\n    }\r\n\r\n    function userExists(address user_addr) internal view returns (bool) {\r\n        return bytes(userIPFSMapping[user_addr]).length > 0;\r\n    }\r\n\r\n    function setFallData(address user_addr, string memory imgIPFSid, string memory dataIPFSid) public {\r\n        // require(hasRole(USER_ROLE, user_addr));\r\n\r\n        FallData memory newFallData = FallData(imgIPFSid, dataIPFSid);\r\n        fallDataMap[user_addr].push(newFallData);\r\n    }\r\n\r\n    function getFallData(address user_addr) public view returns (FallData[] memory) {\r\n        // require(hasRole(USER_ROLE, user_addr));\r\n        \r\n        FallData[] storage fallData = fallDataMap[user_addr];\r\n        require(fallData.length > 0, \"No fall data found for the given user address\");\r\n        return fallData;\r\n    }\r\n}\r\n",
  "sourcePath": "D:\\xampp\\htdocs\\metasave\\packages\\metasave-contracts\\contracts\\MetaSave.sol",
  "compiler": {
    "name": "solc",
    "version": "0.8.20+commit.a1b79de6.Emscripten.clang"
  },
  "schemaVersion": "3.4.16",
  "updatedAt": "2024-05-16T17:05:03.674Z",
  "networkType": "ethereum",
  "devdoc": {
    "errors": {
      "AccessControlBadConfirmation()": [
        {
          "details": "The caller of a function is not the expected one. NOTE: Don't confuse with {AccessControlUnauthorizedAccount}."
        }
      ],
      "AccessControlUnauthorizedAccount(address,bytes32)": [
        {
          "details": "The `account` is missing a role."
        }
      ]
    },
    "events": {
      "RoleAdminChanged(bytes32,bytes32,bytes32)": {
        "details": "Emitted when `newAdminRole` is set as ``role``'s admin role, replacing `previousAdminRole` `DEFAULT_ADMIN_ROLE` is the starting admin for all roles, despite {RoleAdminChanged} not being emitted signaling this."
      },
      "RoleGranted(bytes32,address,address)": {
        "details": "Emitted when `account` is granted `role`. `sender` is the account that originated the contract call, an admin role bearer except when using {AccessControl-_setupRole}."
      },
      "RoleRevoked(bytes32,address,address)": {
        "details": "Emitted when `account` is revoked `role`. `sender` is the account that originated the contract call:   - if using `revokeRole`, it is the admin role bearer   - if using `renounceRole`, it is the role bearer (i.e. `account`)"
      }
    },
    "kind": "dev",
    "methods": {
      "getRoleAdmin(bytes32)": {
        "details": "Returns the admin role that controls `role`. See {grantRole} and {revokeRole}. To change a role's admin, use {_setRoleAdmin}."
      },
      "grantRole(bytes32,address)": {
        "details": "Grants `role` to `account`. If `account` had not been already granted `role`, emits a {RoleGranted} event. Requirements: - the caller must have ``role``'s admin role. May emit a {RoleGranted} event."
      },
      "hasRole(bytes32,address)": {
        "details": "Returns `true` if `account` has been granted `role`."
      },
      "renounceRole(bytes32,address)": {
        "details": "Revokes `role` from the calling account. Roles are often managed via {grantRole} and {revokeRole}: this function's purpose is to provide a mechanism for accounts to lose their privileges if they are compromised (such as when a trusted device is misplaced). If the calling account had been revoked `role`, emits a {RoleRevoked} event. Requirements: - the caller must be `callerConfirmation`. May emit a {RoleRevoked} event."
      },
      "revokeRole(bytes32,address)": {
        "details": "Revokes `role` from `account`. If `account` had been granted `role`, emits a {RoleRevoked} event. Requirements: - the caller must have ``role``'s admin role. May emit a {RoleRevoked} event."
      },
      "supportsInterface(bytes4)": {
        "details": "See {IERC165-supportsInterface}."
      }
    },
    "version": 1
  },
  "userdoc": {
    "kind": "user",
    "methods": {},
    "version": 1
  }
}